:10002600072020204A52542D34382D313030000715
:100036004550524F4D204552524F52210A4C6F6146
:10004600642044656661756C742E2E2E000750522E
:10005600494E544552204E4F540A20524541445968
:100066002E2E2E000A25732020202020202020203E
:100076002020200007456E746572205061737377E7
:100086006F72643A000850617373776F726420452B
:1000960072726F7221000700084D4158494D554D47
:1000A60020424F4F53540A564F4C54414745202542
:1000B6006F56200008424F4F53542054415045522A
:1000C6002041540A564F4C5441474520256F56202F
:1000D6000008464C4F4154204D4158494D554D0A54
:1000E600564F4C5441474520256F56200008464C34
:1000F6004F4154204D494E494D554D0A564F4C548B
:1001060041474520256F5620000852455455524E0A
:1001160020544F20424F4F53540A4D4F44452042DE
:10012600454C4F5720256F5620000854454D5045E5
:1001360052415455524520434F4D500A4154202DAB
:1001460025646D562FDF432F43454C4C2000085342
:1001560054415445204348414E47450A44454C4185
:10016600592025642053202000075341564520433B
:1001760048414E47453F0A494E433D594553204F56
:10018600544845523D4E4F00084C4F57204241546B
:100196005445525920414C2D0A41524D204F4E2074
:1001A600415420256F562000085245434F4E4E4578
:1001B6004354204C4F41440A41424F564520256F37
:1001C6005620000848494748204241545445525950
:1001D60020414C2D0A41524D204F4E20415420259E
:1001E6006F5620000844454C4159204245464F521F
:1001F600450A444953434F4E4E45435420256420F7
:100206005320200008536974204E756D6265723A5A
:100216000A25642020004F4646004F4E0008424102
:100226004E4B256520256F566F63202020000A5B04
:1002360025735D2020202020256F412020000744C3
:10024600256520483A256F204C3A256F56000A430B
:100256003A256420443A25640054657374204D6F32
:100266006465004D657465722041646A7573740037
:100276000725732000085445535420413A2565004C
:100286002025630025630025632020000A423A20CA
:10029600256F5620543A2564200007494E202565CF
:1002A6000A2565202000075052494E543F000A5047
:1002B60072657373204F4B205072696E742E2E2E0A
:1002C60000070A4E6F77205072696E742E2E2E002C
:1002D6000A09093CB5B1C7B0D7B4CCACBCC7C2BCDF
:1002E6003E000AD0EEB5E7B3D8B5E7D1B9203D2038
:1002F600256F20560009D0EEB5E7B3D8B3E4B5E7CD
:10030600B5E7C1F7203D20256F20410A00B8BAD4D1
:10031600D8B5E7D1B9203D20256F20560009B8BAD7
:10032600D4D8B5E7C1F7203D20256F20410A00D07B
:10033600EEB5E7B3D8CEC2B6C8203D20256420C9A5
:10034600E3CACFB6C80009B3E4B5E7D7B4CCAC204E
:100356003D202565200A00CCABD1F4C4DCB5E7B35B
:10036600D8B5DA2564D7E9B5E7C1F7203D20256F72
:1003760020410A00B5B1C8D5C0DBBCC6B3E4B5E7B9
:10038600B5E7C1BF203D2025642041480009B5B12D
:10039600C8D5C0DBBCC6B7C5B5E7B5E7C1BF203D0C
:1003A6002025642041480A00B5B1C8D5D0EEB5E78E
:1003B600B3D8D7EEB8DFB5E7D1B9203D20256F20F9
:1003C600560009B5B1C8D5D0EEB5E7B3D8D7EEB566
:1003D600CDB5E7D1B9203D20256F20560A00D4CBF4
:1003E600D0D0CAB1BCE43A20256520CAB120256523
:1003F60020B7D60A000A0A09093CC9E8D6C3D7B409
:06040600CCACBCC7C2BC77
:10040C003E0A000AC7BFB3E4D7EEB4F3B5E7D1B9DF
:10041C00203D20256F20560900C7BFB3E4B5DDBCD5
:10042C00F5B5E7D1B9203D20256F20560A00B8A1BB
:10043C00B3E4B5E7D1B9C9CFCFDE203D20256F207D
:10044C00560900B8A1B3E4B5E7D1B9CFC2CFDE20CD
:10045C003D20256F20560A00B7B5BBD8C7BFB3E403
:10046C00B5E7D1B9203D20256F20560900CEC2B684
:10047C00C8B2B9B3A5B5E7D1B9203D202564206D2C
:10048C00560A00B8E6BEAFB5E7D1B9C9CFCFDE206A
:10049C003D20256F20560900B8E6BEAFB5E7D1B9AF
:1004AC00CFC2CFDE203D20256F20560A00B8BAD42B
:1004BC00D8D6D8C1ACBDD3B5E7D1B9203D20256F76
:1004CC0020560900B6CFBFAAB8BAD4D8C7B0D1D37A
:1004DC00CAB1203D20256420530A00D7B4CCACD738
:1004EC00AABBBBD1D3CAB1203D2025642053090A35
:1004FC00000A0A09093CC0FACAB7BCC7C2BC3E0014
:10050C000AC8D520C6DA2009D7EEB8DFB5E7D1B9CD
:10051C0009D7EEB5CDB5E7D1B909B3E4B5E7B5E781
:10052C00C1BF09B7C5B5E7B5E7C1BF0A00B5DA2049
:10053C00256420CCEC09256F5609256F560009253A
:10054C00642041480925642041480A00D7EEBAF3DB
:10055C003332CCECD7EEB8DFB5E7D1B9C7FACFDF81
:10056C0028562FCCEC290A0A00D7EEBAF33332CC3A
:10057C00ECD7EEB5CDB5E7D1B9C7FACFDF28562FFA
:10058C00CCEC290A0A00D7EEBAF33332CCECB3E444
:10059C00B5E7C1BFC7FACFDF28B0B2CAB12FCCECD8
:1005AC00290A0A00D7EEBAF33332CCECB7C5B5E75B
:1005BC00C1BFC7FACFDF28B0B2CAB12FCCEC290A21
:1005CC000A00075072696E74204869732D506C6F65
:1005DC00740A5072657373204F4B20436F6E6669BB
:1005EC00726D00074E6F77205072696E74696E677A
:1005FC002E2E2E00202020560A0020202041480AB2
:10060C0000256400202020202033312020202020B1
:10061C002020323520202020202020203230202085
:10062C002020202020203135202020202020202098
:10063C003130202020202020202020352020202078
:10064C0020202020202030202028CCEC290A000A51
:10065C00090925730A0A004154264645305630587C
:10066C003053303D310D004154264645305630262E
:10067C004B30583053303D310D00084241545445F5
:10068C00525920564F4C544147450A2020202020D7
:10069C002020202020256F56200008434841524737
:1006AC00452043555252454E540A202020202020EC
:1006BC0020202020256F412000084C4F414420561B
:1006CC004F4C544147450A20202020202020202038
:1006DC0020256F562000084C4F4144204355525260
:1006EC00454E540A20202020202020202020256F39
:1006FC0041200070B0D0E071B1D1E172B2D2E2739E
:10070C00B3D3E3FF009EFF00BAFF00D7FF00F3FF57
:10071C00010FFF0130FF015402A802A80258025831
:10072C00025800140168021C020801E001E001E01B
:10073C0000000006FF018EFF01AEFF01C9FF01EAB8
:10074C0001E0025802D000FA01A401A40230000119
:10075C00FF021CFF0220FF025FFF02691B2D011B21
:10076C0021001B2A0141020002BC025801F4019035
:10077C00012C00C8006400000000000002BC0258FC
:10078C0001F40190012C00C800640000000000007E
:10079C0012C011940FA00DAC0BB809C407D005DC26
:1007AC0003E801F412C011940FA00DAC0BB809C4EE
:1007BC0007D005DC03E801F41B2A010800FF0558EB
:0907CC00FF0575FF0592FF05B061
:1025A5007F08122C2FAC06AD077F01122CAB7F08DC
:1025B500122C2FEF7802C333CE33CED8F9FDAC06FB
:1025C500C004C0057F07122C2FD0E02FFFD0E03EBE
:1025D500FE7C007D05121CA0AC06AD077F02122C07
:1025E500AB7F08122C2F7C007D03121C8EC006C009
:1025F500077F07122C2FEF25E0FDEE33FCD0E02DF1
:10260500FFD0E03CFE7C007D05121CA0AC06AD07AA
:102615007F03122CAB7F07122C2F7C007D03121C2D
:102625008EC006C0077F08122C2FEF25E0FDEE3384
:10263500FCD0E02DFFD0E03CFE7C007D05121CA007
:10264500AC06AD077F04122CAB7F07122C2FEF7859
:1026550002C333CE33CED8F9FDAC06C004C0057F26
:1026650008122C2FD0E02FFFD0E03EFE7C007D0528
:10267500121CA0AC06AD077F05122CAB7F07122CF0
:0A2685002FAC06AD077F06022CAB58
:1023AC00C2B6E4F52D432D40852D80F52EC2A7C273
:1023BC00A6758010752C10D2A5C2A5F524FD7C0441
:1023CC007F3E122CABD200122FB37BFF7A00792602
:1023DC001219807FB87E0B122F48D205E4F52FFF1F
:1023EC00122C2FEF64464E70030224997BFF7A0067
:1023FC007935121980122F657D587C027F07122CBB
:10240C00AB7D307C027F08122CAB7D307C027F09C7
:10241C00122CAB7D1C7C027F0A122CAB7D3C7C0009
:10242C007F0D122CAB7DF07C017F0B122CABE4FDED
:10243C00FC7F0C122CAB7DC07C017F0E122CAB7D73
:10244C00807C027F10122CAB7D007C027F0F122C43
:10245C00AB7DC87C007F11122CAB751F257D387CA1
:10246C0000AF1F122CAB051FE51FC3942D40EE755A
:10247C001F2D7D807C00AF1F122CAB051FE51FC3E9
:10248C00943D40EE7D467C00E4FF122CAB1225A55A
:10249C0075A81275B810759870758921758DFDE445
:0924AC00F587D28ED28CD2AF224A
:092B9700852D80D2A6C2A6AF0272
:102BA000E52C54F04FF52CF580D2A5C2A5E4F55DD7
:102BB000F55EF5590559E559B4FFF9E4F559E4FC1A
:102BC000FDC2B7D2B5C2B230B5FDD2B7C2B7D2B727
:102BD000A2B5E4334205E4C2B7F55AD2B7ED25E019
:102BE000FFEC33FEA2B5E433FBEEFCEF4BFDC2B7C6
:102BF000055AE55AB40BE4D2B5D2B7D2B2ED255E90
:102C0000F55EEC355DF55DB2B40559E559B410AE2D
:102C1000E55DC4F854F0C868FCE55EC4540F48FD97
:042C2000FFAE0422DD
:10227000AA07EA121E5023340022AD0122D80222FE
:10228000D80322D80422D80522D80622D80723074B
:102290000823400E234C0F235F10236611236D1279
:1022A000237413237B1423821500002389AF0212A9
:1022B0002BA07C007D04121CF58E728F73D3E53940
:1022C0009573E5389572400BE5399573FFE53895C0
:1022D00072FE227E007F0022752D3FE524600553AB
:1022E0002DBF8003432D40122B977C007D09121CCB
:1022F0008E7D19121CF5E53924BCCDE5383402CDAC
:10230000C39FFFED9EFE22AF02122BA0EF248CFF95
:10231000EE34F4FE7C007D0A121CF58E728F73D3AE
:10232000E5739464E572940040057E007F0022AE60
:1023300072AF7322AF02122BA07C007D04021CF549
:10234000AF02122BA07C007D0A021CF5AF02122BFB
:10235000A0EF25E0FFEE33FE7C007D05021CF57545
:102360002DFE7A0F8028752DFD7A0F8021752DFBAB
:102370007A0F801A752DF77A0F8013752DEF7A0F6B
:10238000800C752DDF7A0F80057E007F0022E5240A
:102390006005532DBF8003432D40122B97EF25E09E
:0C23A000FFEE33FE7C007D05121CF522D0
:102EFA008F7A857A3AE4F57AE53AB4FF05AE3BAFC4
:102F0A003C227F147E00122F48057AE57AC394FF8B
:032F1A0040E6226C
:03000B0002160BCF
:10160B00C0E0C0F0C083C082C0D075D000C000C0A5
:10161B0001C002C003C004C005C006C007758C4CD6
:10162B00758A01E53AF4600CAF3A1222708E3B8F4B
:10163B003C753AFF300303120D2BAF220522EF64EA
:10164B001360030218CAB2B4F522FF1222708E384F
:10165B008F397F0C122C2F7C007D18121C8EC0062C
:10166B00C0077F08122270AC06AD07D007D0061258
:10167B001C8E7C007D64121CA0C3E5399FF575E5BB
:10168B00389EF574E525C39407506FE52514FF12BA
:10169B002C2FC3E5759FE5749E5026E52514FFB5E9
:1016AB00230CE526600302178315250217838F236E
:1016BB003004047F0280057F0D122C2F8F2602171A
:1016CB0083AF25122C2FC3E5759FE5749E4026E54D
:1016DB002504FFB5230CE5266003021783052502BD
:1016EB0017838F233004047F0280057F0D122C2F6C
:1016FB008F26021783752300807EE525B40D077FA7
:10170B000B122C2F80057F0A122C2FC3E5759FE53A
:10171B00749E502CE52504FFB52313E5267059E57F
:10172B0025B40D047E018002AE078E25804A8F23DF
:10173B003004047F0280057F0D122C2F8F268038FA
:10174B007F09122C2FD3E5759FE5749E4027E52565
:10175B0064076021E52514FFB52308E526701915EC
:10176B002580158F233004047F0280057F0D122CFA
:10177B002F8F2680037523007F44122C2FD3E57502
:10178B009FE5749E4009AD75AC747F44122CAB7F02
:10179B0045122C2FC3E5759FE5749E5009AD75ACB2
:1017AB00747F45122CAB7F0F122270EE3395E0FD48
:1017BB00FCE5332FF533E5323EF532E5313DF531BE
:1017CB00E5303CF5307F0E122270EE3395E0FDFCD8
:1017DB00E5372FF537E5363EF536E5353DF535E59D
:1017EB00343CF534E47BA07A8CF9F8AF33AE32ADF0
:1017FB0031AC30121D92AD07AC067F46122CABE418
:10180B007BA07A8CF9F8AF37AE36AD35AC34121D00
:10181B0092AD07AC067F47122CABE52470447F10CA
:10182B00122C2FD3E5759FE5749E400CE52770694C
:10183B00432E0D75240180617F0E122C2FC3E5758D
:10184B009FE5749E500CE527704F432E0E752402B6
:10185B0080473004047F0280057F11122C2F8F27C5
:0C186B008037E524B4011E7F10122C2FE2
:10187700EF24D8FFEE34FFFEC3E5759FE5749E5055
:101887001C532EF275240080147F0F122C2FD3E5E2
:10189700759FE5749E4006532EF175240015261595
:1018A70027AF280528EFB43B1A7528000529AF2A6A
:1018B700052AEFB43B0D752A00AF2B052BEFB417A4
:1018C70002D201AF807574008F75852E80D2A7C2B2
:1018D700A7E52514B40D0050589018EE75F003A431
:1018E700C58325F0C5837302191502191A02191F3A
:1018F70002192402192902192E02193302192E027C
:10190700192902192402191F02191A021915752D0E
:10191700008021752D20801C752D308017752D387E
:101927008012752D3C800D752D3E8008752D3F80EA
:1019370003752501E5246005532DBF8003432D4022
:10194700200207852D80D2A6C2A6857580D007D034
:1019570006D005D004D003D002D001D000D0D0D01B
:0819670082D083D0F0D0E03201
:100D2B007881E66401600302100A08E6121E500D7A
:100D3B00A7000DB3010DC4020DD5030DE6040DF78D
:100D4B00050E08060E19070E2A080E3E090E4B0A51
:100D5B000E580E0E690F0E7A100E8B110E9C120E82
:100D6B00AD130EBE140ECF150EE0200EF1210F02A7
:100D7B00220F13230F24240F35250F46260F572739
:100D8B000F68280F79290F8A2A0F9B2B0FAC2C0F7A
:100D9B00BD2D0FCE2E0FDF4300000FFEAD39AC384B
:100DAB00E4FF122ED20211FC7F01122270AC06ADB1
:100DBB00077F01122ED20211FC7F02122270AC06A9
:100DCB00AD077F02122ED20211FC7F03122270ACF0
:100DDB0006AD077F03122ED20211FC7F0412227084
:100DEB00AC06AD077F04122ED20211FC7F05122236
:100DFB0070AC06AD077F05122ED20211FC7F0612D6
:100E0B002270AC06AD077F06122ED20211FC7F07B3
:100E1B00122270AC06AD077F07122ED20211FC7F97
:100E2B0008122270EF2414FDE43EFC7F08122ED230
:100E3B000211FCE525FD7C007F09122ED20211FC6C
:100E4B00E524FD7C007F0A122ED20211FC7F0E12CC
:100E5B002270AC06AD077F0E122ED20211FC7F0F53
:100E6B00122270AC06AD077F0F122ED20211FC7F3F
:100E7B0010122270AC06AD077F10122ED20211FC9D
:100E8B007F11122270AC06AD077F11122ED2021108
:100E9B00FC7F12122270AC06AD077F12122ED2020B
:100EAB0011FC7F13122270AC06AD077F13122ED2EA
:100EBB000211FC7F14122270AC06AD077F14122EA8
:100ECB00D20211FC7F15122270AC06AD077F1512F2
:100EDB002ED20211FC7F07122C2FAC06AD077F2000
:100EEB00122ED20211FC7F08122C2FAC06AD077FFD
:100EFB0021122ED20211FC7F09122C2FAC06AD074A
:100F0B007F22122ED20211FC7F0A122C2FAC06ADBF
:100F1B00077F23122ED20211FC7F0B122C2FAC0653
:100F2B00AD077F24122ED20211FC7F0C122C2FAC9A
:100F3B0006AD077F25122ED20211FC7F0D122C2F2E
:100F4B00AC06AD077F26122ED20211FC7F0E122C9F
:100F5B002FAC06AD077F27122ED20211FC7F0F128A
:100F6B002C2FAC06AD077F28122ED20211FC7F105E
:100F7B00122C2FAC06AD077F29122ED20211FC7F4B
:100F8B0011122C2FAC06AD077F2A122ED20211FCA8
:100F9B007F3E122C2FAC06AD077F2B122ED20211E7
:100FAB00FC7F3F122C2FAC06AD077F2C122ED202EA
:100FBB0011FC7F40122C2FAC06AD077F2D122ED2C9
:100FCB000211FC7F41122C2FAC06AD077F2E122E87
:060FDB00D20211FC757B3F
:100FE10044AF7B122C2FAC06AD07AF7B122ED2B2D1
:100FF100B4057BE57BC394C440E70211FC7DFF7C13
:10100100007FFF122ED20211FC7882E624E0B40B9D
:101011000040030211D590102575F003A4C5832566
:10102100F0C5837302104602106D0210940210B8CD
:101031000210DC02110002112402114802116C029B
:10104100118F0211B27883E6FE08E67C002400FDD0
:10105100EC3EFC7F07122CAB7F07122C2FAC06ADA8
:10106100077F20122ED21225A50211FC7883E6FEFD
:1010710008E67C002400FDEC3EFC7F08122CAB7FCF
:1010810008122C2FAC06AD077F21122ED21225A5F6
:101091000211FC7883E6FE08E67C002400FDEC3EAC
:1010A100FC7F09122CAB7F09122C2FAC06AD077FF8
:1010B10022122ED20211FC7883E6FE08E67C00247F
:1010C10000FDEC3EFC7F0A122CAB7F0A122C2FACE8
:1010D10006AD077F23122ED20211FC7883E6FE08AB
:1010E100E67C002400FDEC3EFC7F0B122CAB7F0B59
:1010F100122C2FAC06AD077F24122ED20211FC78E0
:1011010083E6FE08E67C002400FDEC3EFC7F0C1229
:101111002CAB7F0C122C2FAC06AD077F25122ED2E3
:101121000211FC7883E6FE08E67C002400FDEC3E1B
:10113100FC7F0D122CAB7F0D122C2FAC06AD077F5F
:1011410026122ED20211FC7883E6FE08E67C0024EA
:1011510000FDEC3EFC7F0E122CAB7F0E122C2FAC4F
:1011610006AD077F27122ED20211FC7883E6FE0816
:10117100E67C002400FDEC3EFC7F0F122CAB7F0FC0
:10118100122C2FAC06AD077F28122ED2806D7883EA
:10119100E6FE08E67C002400FDEC3EFC7F10122CEC
:1011A100AB7F10122C2FAC06AD077F29122ED280F7
:1011B1004A7883E6FE08E67C002400FDEC3EFC7FD5
:1011C10011122CAB7F11122C2FAC06AD077F2A1206
:1011D1002ED280277883E6FE08E67C002400FDEC11
:1011E1003EFC7882E6FF122CAB7882E6FF122C2FB0
:0E11F100AC06AD077882E6FF122ED2C20322B2
:102E8400C2AFC295C296C297D294D2973094FDD263
:102E940095D296C296EF700CC295D296C296D296EF
:102EA400C296800CC295D296C296D296C2967FC024
:102EB400E4FEEFC4131313540124FF9295D296C277
:0E2EC40096EF25E0FF0EBE08E9C297D2AF22BE
:0D2C9E00FDFC7F44122CAB7D107C277F4590
:102CAB00A907AB05AA047F01122E84C2AFC295C23D
:102CBB0096C297D294D2973094FDD295D296C29663
:102CCB00C295D296C296D295D296C296E4FDE9C42D
:102CDB00131313540124FF9295D296C296E925E063
:102CEB00F90DBD08E9E4FDEAC4131313540124FFE5
:102CFB009295D296C296EB25E0FBEA33FA0DBD1006
:0A2D0B00E6C297D2AFE4FF022E8467
:0B2C2400E55525E025E024442557FF7E
:102C2F00A907C2AFE4FFC295C296C297D294D297BA
:102C3F003094FDC297D297D295D296C296D296C2B1
:102C4F0096C295D296C296E4FDE9C41313135401AC
:102C5F0024FF9295D296C296E925E0F90DBD08E9B9
:102C6F003094090FBF0ABF7E007F0022E4FDEB25E1
:102C7F00E0FBEA33FAD296C296A294E433FFE4EF74
:0F2C8F0042030DBD10E8C297D2AFAF03AE0222D1
:102F8200C2AF7580FFC2A0D2A1D2A2AF80C2A2D22C
:0A2F9200AFEFC41313135401FF2224
:102F9C00AE07122F82EF70FAC2AFC2A1C2A08E8010
:072FAC00D2A2C2A2D2AF22A3
:102FB3007F38122F9C7F06122F9C7F0C122F9C7F31
:042FC30001022F9C3C
:102B0700E57F2404F8E6FC08E6FDE57F2406F8E601
:0B2B1700FE08E6FF121CA0EF2430FFB8
:102B2200157FA87FA607300032122F82EF70FAC2FB
:102B3200A1C2A0A87FE6FF24F9601114600924FE57
:102B4200700F7580C0800E758002800975800180CB
:102B520004D2A08F80D2A2C2A2803330A41BD200A2
:102B62007BFF7A007953121980122DDDBF0D067E8C
:102B7200007F01801DC20080E2C2AFA87FE6F5801F
:102B8200C2A3D2A3D2AFB40A057F0D122B227E00BC
:052B92007F00057F2219
:10196F00157F157FA87FA64008A641AB3DAA3EA9CB
:01197F003F28
:10198000157F157F157FA87FA60308A60208A6016C
:10199000E57F24F3F57F240D2403F9E433FAE57F92
:1019A000240AF8760008A60208A601E57F240DF8AF
:1019B0008603080806E618860270010614F9121C50
:1019C00053A87FF66425601CA87FE6FD7006FE7FA5
:1019D00001021C4CAF05122B22EF4E60CE7E007F21
:1019E00001021C4CE57F240DF88603080806E61862
:1019F000860270010614F9121C53A87FF6249C700D
:101A000003021B59147003021A9724F67003021B79
:101A10005924FC603224107019E57F240AF88603EB
:101A2000080806E618860270010614F9121C53A86D
:101A30007FF6A87FE6FF122B22EF4E70030219AB50
:101A40007E007F01021C4CE57F240AF8860308080B
:101A5000E6F92403F618E6FA3400F6121E30A87FE1
:101A600008A60308A60208A601A87F08860308089E
:101A700006E618860270010614F9121C53A87FF6B8
:101A800070030219ABA87FE6FF122B22EF4E60D93C
:101A90007E007F01021C4CE57F2408F87600087662
:101AA0000AE57F2404F87600087664E57F240AF8C6
:101AB0008603080806E618860270010614F9121C4F
:101AC00053FFE57F2406F8760008A607E57F240487
:101AD000F8E6FE08E6FFD39401EE94004025E57F8A
:101AE0002406F9D3EF0997EE19974017E57F2404F0
:101AF000F8C0007C007D0A121CA0D000A60608A633
:101B00000780C9122B07E57F2406F8C000E6FE080F
:101B1000E6FFE57F2404F8E6FA08E6FBFDAC0212D6
:101B20001CA0D000A60408A605E57F2404F8C00088
:101B3000E57F2408F8E6FE08E6FFFDAC06AF03AE3D
:101B400002121CA0D000A60608A607E57F2404F90F
:101B500009E7194770AD0219ABE57F2408F8760054
:101B600008760AE57F2404F87627087610E57F24B6
:101B70000AF886030808E6F92402F618E6FA3400A3
:101B8000F6121D2BFFE57F2406F8A6F008A607E550
:101B90007F2404F8E6FE08E6FFD39401EE940040AB
:101BA00025E57F2406F9D3EF0997EE19974017E54D
:101BB0007F2404F8C0007C007D0A121CA0D000A67F
:101BC0000608A60780C9A87FE6B46F12E57F240443
:101BD000F909E76401194770057F30122B22A87FAD
:101BE000E6B46F12E57F2404F909E7640119477030
:101BF000057F2E122B22122B07E57F2406F8C0004A
:101C0000E6FE08E6FFE57F2404F8E6FA08E6FBFDB9
:101C1000AC02121CA0D000A60408A605E57F24048F
:101C2000F8C000E57F2408F8E6FE08E6FFFDAC06F4
:101C3000AF03AE02121CA0D000A60608A607E57FDF
:101C40002404F909E7194770950219ABE57F2410C0
:031C5000F57F22FB
:082F4000057F057F7FF47E018F
:102F4800D3EF9400EE9400400FE4FDB2B40DBD64DD
:092F5800FAEF1F70EB1E80E82265
:102DDD00B2B4E4FB7401A803088002C333D8FCF439
:102DED00F590E590440FFCF4601D7F147E00122FCA
:102DFD0048ECB590047F0180027F00EF440F600B1B
:102E0D00EC54F02BFC80040BBB04C97590FFE4FB64
:102E1D00EB9006FF93B50408AC03E4F529AF04224B
:072E2D000BBB10EC7F10222B
:042F6100057F057F64
:102F6500122DDDEF64106007E529C3940A40F112C4
:0D2F75002DDDBF1007E529C3940A40F322AB
:102A71008B5F8A6089618D62E4F563122F65AD0712
:102A8100BD0C057E007F0122BD0D19E563D39400C5
:102A910040121563AB5FAA60A961856382758300EB
:102AA100E4121C6CEDC3940A5035E563C395625082
:102AB1002EED2430AB5FAA60A96185638275830026
:102AC100121C6C0563AD63EDC395625012AB5FAA36
:102AD10060A9618D82758300E4121C6C0D80E8AAE7
:102AE10060A961157F157F157FA87FA65F08A602E3
:102AF10008A6017BFF7A00796A121980057F057F9C
:062B0100057F022A7C2280
:1024B5008B3D8A3E893F8C408D417F01122F9C12B6
:1024C500196F122F618F46BF10057EFF7FFF22E532
:1024D50046B40C05AE40AF4122E5466407705AC3C9
:1024E500E5419543E5426480F8E5406480985008ED
:1024F5000541E5417002054012196F057F057F1200
:102505002DDDEF64077032122F44122DDDBF07EF6A
:10251500C3E5419543E5426480F8E5406480985001
:10252500080541E5417002054012196F057F057FD9
:102535007FC87E00122F4880D1E546640B600302F8
:1025450024BFD3E5419545E5446480F8E5406480C2
:10255500984008E54115417002154012196F057F35
:10256500057F122DDDEF640B60030224BF122F449B
:10257500122DDDBF0BECD3E5419545E5446480F8AC
:10258500E5406480984008E5411541700215401208
:10259500196F057F057F7FC87E00122F4880D122E5
:102D7D00E4F56874642568F8E4F60568E568B4045C
:102D8D00F27BFF7A00797A1219807B007A007964E0
:102D9D007D03122A71E4F568E5682425FF122C2FB6
:102DAD0074642568F8E66F7001EE60187BFF7A0099
:102DBD00798B121980122F657BFF7A00799C12197D
:102DCD00807F00220568E568C3940340CB7F012214
:10284A00122D7DEF7003FEFF22E4F510E51075F0FE
:10285A0003A4240FF582E43407F583E493FB74019F
:10286A0093FA740293F9C003C002C001E510240769
:10287A00FF122C2FAC06AD07E51025E02424F582C3
:10288A00E43407F583E493FE740193FFE51025E031
:10289A002432F582E43407F583E493F54474019312
:1028AA00F5458E428F43D001D002D0031224B5E5FC
:1028BA001025E02411F8EEF608EFF6BEFF08BFFF78
:1028CA00057E007F00220510E510C394075003021D
:1028DA0028567BFF7A01796F121980122F65BF077C
:1028EA0023E4F510E51025E02411F8E6FC08E6FDDE
:1028FA00E5102407FF122CAB0510E510C39407401E
:0A290A00E31225A57F01122F9C2285
:10277400122D7DEF7003FEFF22E4F547E54775F067
:1027840003A42440F582E43407F583E493FB740145
:1027940093FA740293F9C003C002C001E547240E02
:1027A400FF122C2FAC06AD07E54725E0244CF5823B
:1027B400E43407F583E493FE740193FFE54725E0D1
:1027C4002454F582E43407F583E493F544740193C7
:1027D400F5458E428F43D001D002D0031224B5E5D3
:1027E4004725E02448F8EEF608EFF6BEFF08BFFFE1
:1027F400057E007F00220547E547C3940450030289
:1028040027807BFF7A01796F121980122F65EF649C
:1028140007702D7F01122E84E4F547E54725E02457
:1028240048F8E6FC08E6FDE547240EFF122CAB054C
:1028340047E547C3940440E3E4FF122E841225A520
:062844007F01122F9C220F
:102D1500D206122D7DEF7003FEFF227F12122C2F9B
:102D25008F7C7F12122C2FAC06AD077BFF7A0279C0
:102D35000A7542007543FFE4F544F5451224B58F45
:102D45007C7E00BEFF06BFFF037F00227BFF7A016A
:102D5500796F121980122F65BF07177F01122E8414
:102D6500E57CFD7C007F12122CABE4FF122E841251
:082D750025A57F01122F9C220D
:10000E00E52DA807088002C313D8FC30E0047F302A
:05001E0080027F312289
:10268F00E4F57DD2077F01122F9CD20230072CE593
:10269F007D2402FF122EFA157F157FA87FA606084C
:1026AF00A607E57D04157FA87FF67BFF7A027923C5
:1026BF00121980057F057F057FC207E57D2410FF76
:1026CF00122EFA157F157FA87FA60608A607AF7DE5
:1026DF0012000EEF75F003A424CCF582E43406F556
:1026EF0083E493FB740193FA740293157F157F159E
:1026FF007FA87FA60308A60208F67BFF7A0279342B
:10270F00121980E57F2405F57F7FC87E00122F48C0
:10271F00122DDDEF602924F5601624FB60312409AA
:10272F007021E57D0475F0068485F07DD207801F4A
:10273F00E57D7005757D058002157DD2078010D26D
:10274F0007800CC2027F01122F9C7E007F0022E5C2
:10275F0029D3940A500302269B7F01122F9CC20299
:05276F007E007F002246
:1029C900E4F569F56BE56B25E025E02444F56A0437
:1029D900FF122C2F157F157FA87FA60608A607AF23
:1029E9006A122C2F157F157FA87FA60608A6071542
:1029F9007FA87FA66B7BFF7A027944121980E57F55
:102A09002405F57FE56A2403FF122C2F157F157F16
:102A1900A87FA60608A607E56A2402FF122C2F152F
:102A29007F157FA87FA60608A6077BFF7A0279543F
:102A3900121980E57F2404F57F122F65EF24F560D4
:102A49000E24047019E56B04541FF56B0229CEE5B9
:102A59006B7006756B1F0229CE156B0229CE7F019B
:082A6900122F9C7E007F002269
:10209A00E4F56CF56EE56C640C6060E56E75F00352
:1020AA00A42462F582E43407F583E493FB74019374
:1020BA00FA740293157F157F157FA87FA60308A6D9
:1020CA000208F67BFF7A027976121980057F122FB1
:1020DA00618F6CE56CF46005E56CB40D057E007FDC
:1020EA000022E56C64076005E56CB40BA8E56E7028
:1020FA0005756E01809FE4F56E809AE56E600302B5
:10210A0021FFD204E529C3943C40030221ED122D9C
:10211A00DDEF640D70030221ED157FA87FA6257BF4
:10212A00FF7A02797B121980057FE4FF12000E15EF
:10213A007FA87FA6077BFF7A027986121980057F1E
:10214A007F0112000E157FA87FA6077BFF7A02790E
:10215A008A121980057F7F0212000E157FA87FA6BA
:10216A00077BFF7A02798A121980057F7F031200A2
:10217A000E157FA87FA6077BFF7A02798A1219803B
:10218A00057F7F0412000E157FA87FA6077BFF7AC2
:10219A0002798A121980057F7F0512000E157FA821
:1021AA007FA6077BFF7A02798D121980057F7F0847
:1021BA00122EFAEF2414FFE43E157F157FA87FF64E
:1021CA0008A607157F157FA87FA63808A6397BFFC2
:1021DA007A027992121980E57F2404F57F122F443E
:1021EA0002210E7F0D122C2F8F267F11122C2F8F7A
:1021FA0027C204806BE4F56E756C10E56E242DFF22
:10220A00122C2F8F6DE56C640C603A157FA87FA69F
:10221A006D157FA87FA66E7BFF7A0279A0121980BE
:10222A00122F618F6CE56C64106005E56CB40D05C6
:10223A007E007F0022E56CB40702056DE56CB40BE5
:10224A00C4156D80C0E56E242DFFE56DFD7C00127E
:10225A002CAB7F01122F9C056EE56EC3941040983B
:06226A007F01122F9C22EF
:1011FF007BFF7A0279AC1219807BFF7A0279B412E5
:10120F001980122F65EF640C60057E007F01227B31
:10121F00FF7A0279C7121980C2007F1B122B227F1F
:10122F0040122B227BFF7A0779681219807BFF7A95
:10123F000279D61219807BFF7A07796B1219807F9A
:10124F0000122B22157F157FA87FA63808A6397BA1
:10125F00FF7A0279E8121980057F057F7F0F122E22
:10126F00FA157F157FA87FA60608A6077BFF7A02CF
:10127F0079FB121980057F057F7F01122EFA157FEA
:10128F00157FA87FA60608A6077BFF7A037913129E
:10129F001980057F057F7F0E122EFA157F157FA807
:1012AF007FA60608A6077BFF7A037923121980050C
:1012BF007F057F7F08122EFAEF2414FFE43E157F7F
:1012CF00157FA87FF608A6077BFF7A0379351219D9
:1012DF0080057F057F157FA87FA6257BFF7A037981
:1012EF004C121980057FE4F576F577E5772410FF2A
:1012FF00122EFA157F157FA87FA60608A607E57799
:10130F002401FFE43576157F157FA87FF608A60721
:10131F007BFF7A03795D121980E57F2404F57F0541
:10132F0077E57770020576C39406E576648094803E
:10133F0040B97F46122C2F157F157FA87FA6060870
:10134F00A6077BFF7A03797A121980057F057F7FC5
:10135F0047122C2F157F157FA87FA60608A6077B9F
:10136F00FF7A037993121980057F057F7F44122C32
:10137F002F157F157FA87FA60608A6077BFF7A0388
:10138F0079AE121980057F057F7F45122C2F157FAF
:10139F00157FA87FA60608A6077BFF7A0379C812D8
:1013AF001980057F057F157FA87FA62A157FA87F47
:0D13BF00A62B7BFF7A0379E4121980057FCD
:1013CC00057F7BFF7A0779681219807BFF7A037996
:1013DC00FB1219807BFF7A07796B1219807F001240
:1013EC002B227F06122C2F157F157FA87FA60608AF
:1013FC00A6077BFF7A04790F121980057F057F7F82
:10140C0001122C2F157F157FA87FA60608A6077B37
:10141C00FF7A047925121980057F057F7F09122C2C
:10142C002F157F157FA87FA60608A6077BFF7A04D9
:10143C00793A121980057F057F7F0A122C2F157FB0
:10144C00157FA87FA60608A6077BFF7A04794F12A2
:10145C001980057F057F7F0B122C2F157F157FA818
:10146C007FA60608A6077BFF7A047964121980050B
:10147C007F057F7F0C122C2F157F157FA87FA6066A
:10148C0008A6077BFF7A047979121980057F057FFE
:10149C007F10122C2F157F157FA87FA60608A60794
:1014AC007BFF7A04798F121980057F057F7F0E12DE
:1014BC002C2F157F157FA87FA60608A6077BFF7A21
:1014CC000479A4121980057F057F7F0F122C2F152C
:1014DC007F157FA87FA60608A6077BFF7A0479B93B
:1014EC00121980057F057F7F11122C2F157F157F18
:1014FC00A87FA60608A6077BFF7A0479D01219806C
:10150C00057F057F7F0D122C2F157F157FA87FA6D9
:10151C000608A6077BFF7A0479E7121980057F0578
:10152C007F7BFF7A0779681219807BFF7A0479FD3B
:10153C001219807BFF7A07796B1219807F00122BAE
:10154C00227BFF7A05790C121980E4F576F577E5A4
:10155C007725E025E02445FF122C2F157F157FA859
:10156C007FA60608A607E57725E025E02444FF12B0
:10157C002C2F157F157FA87FA60608A607157F15AB
:10158C007FA87FA67608A6777BFF7A057939121992
:01159C0080CE
:10159D00E57F2406F57FE57725E025E02447FF125A
:1015AD002C2F157F157FA87FA60608A607E57725A2
:1015BD00E025E02446FF122C2F157F157FA87FA66E
:1015CD000608A6077BFF7A05794A121980E57F2464
:1015DD0004F57F0577E57770020576C39420E576EF
:1015ED0064809480500302155B7F0C122B22D20075
:0E15FD007BFF7A00799C1219807E007F00220D
:1007D500E4F5587BFF7A0579CE121980122F65EF63
:1007E500640C60057E007F01227BFF7A0579EF129C
:1007F5001980C2007F1B122B227F30122B227F1BF8
:10080500122B227F44122B227F02122B227F0012F1
:100815002B227F1B122B227F55122B227F01122B9D
:1008250022E4F557E4F558C3E55764809482500BEC
:100835007BFF7A06790012198080097BFF7A067999
:1008450006121980E4F550F551E55775F014A42406
:1008550074F582E43407F583E493FE740193FF7C19
:10086500007D19121CA0C374199551FDE49550FC27
:10087500121C8EAC06AD07AF58EF3395E0FEEF25A1
:10088500E0FFEE33FEAB57EB3395E0FA9007747556
:10089500F014EB121E24EA75F014A42583F583E504
:1008A500822FF582E5833EF583E493FA740193FB89
:1008B500D39DEA9C4003020A6EE55775F014A42403
:1008C50074F582E43407F583E493FE740193FF7CA9
:1008D500007D19121CA0C374189551FDE49550FCB8
:1008E500121C8EC3EB9FEA9E5003020A6ED3E55796
:1008F50064809481403BAF58EF3395E0FEEF25E0EF
:10090500FFEE33FEAD57ED3395E0FC90077475F0BF
:1009150014ED121E24EC75F014A42583F583E582ED
:100925002FF582E5833EF583E493FE740193FF8002
:1009350040AF58EF3395E0FEEF25E0FFEE33FEAD17
:1009450057ED3395E0FC90077475F014ED121E24F5
:10095500EC75F014A42583F583E5822FF582E583F4
:100965003EF583E493FE740193FF7C007D0A121C1F
:10097500A0157F157FA87FA60608A6077BFF7A0628
:10098500790D121980057F057F7F09122B22E55706
:1009950075F014A42474F582E43407F583E493FE1A
:1009A500740193FF7C007D19121CA0C37418955126
:1009B500FDE49550FC121C8EAC06AD07AF58EF3325
:1009C50095E0FEEF25E0FFEE33FEAB57EB3395E008
:1009D500FA90077475F014EB121E24EA75F014A44E
:1009E5002583F583E5822FF582E5833EF583C37480
:1009F50001939DFFE4939CFEEF7803C333CE33CE82
:100A0500D8F9FBAA06E55775F014A42474F582E419
:100A15003407F583E493FE740193FF7C007D19127E
:100A25001CA0AD07AC06AF03AE02121CA07401A852
:100A350007088002C333D8FCF5567BFF7A0779C4D3
:100A45001219807F00122B22E4F552F553AF56128E
:100A55002B220553E55370020552C39408E55264F1
:100A650080948040E8055880307F09122B227BFF57
:100A75007A0779C41219807F00122B22E4F552F50A
:100A8500537F00122B220553E55370020552C39480
:100A950008E5526480948040E87BFF7A07796E12FE
:100AA50019807FFF122B2275540075551F122C24B7
:100AB500AA06AB07E55775F014A42474F582E4344F
:100AC50007F583E493FE740193FF7C007D19121CE6
:100AD500A0C374199551FDE49550FC121C8EC3EB0F
:100AE5009FEA9E402A7FFF122B22E4F552F5537FA1
:100AF50000122B220553E55370020552C39410E5ED
:100B0500526480948040E87FFF122B22020C15125C
:100B15002C24AA06AB07E55775F014A42474F582B6
:100B2500E43407F583E493FE740193FF7C007D199B
:100B3500121CA0C374189551FDE49550FC121C8E2F
:0A0B4500C3EB9FEA9E5003020BF879
:100B4F00122C24AA06AB07E55775F014A42474F5EC
:100B5F0082E43407F583E493FE740193FF7C007DF8
:100B6F0019121CA0C374189551FDE49550FC121C6A
:100B7F008EC3EB9FFFEA9EFEEF7803C333CE33CED7
:100B8F00D8F9FBAA06E55775F014A42474F582E48E
:100B9F003407F583E493FE740193FF7C007D1912F3
:100BAF001CA0AD07AC06AF03AE02121CA07401A8C7
:100BBF0007088002C333D8FCF55625E014FF122B2B
:100BCF0022E4F552F553AF56122B220553E553701D
:100BDF00020552C39410E5526480948040E8E556B4
:100BEF0025E014FF122B22801DE4F552F5537F00F0
:100BFF00122B220553E55370020552C39412E5528E
:100C0F006480948040E8E555155570021554C3E58E
:100C1F0054648094804003020AB27F0D122B227F0E
:100C2F000A122B220551E55170020550C39419E5A4
:100C3F005064809480500302084E7F09122B227B50
:100C4F00FF7A0779C41219807F00122B22E4F55224
:100C5F00F5537F00122B220553E55370020552C343
:100C6F009408E5526480948040E87BFF7A07796EA0
:100C7F00121980E4F552F5537F80122B220553E5AC
:100C8F005370020552C3944EE5526480948240E83B
:100C9F007F0D122B227F0A122B227BFF7A067910EF
:100CAF001219807F0D122B227F0A122B22AF57EFC2
:100CBF003395E0FE9007C975F003EF121E24EE7511
:100CCF00F003A42583F583E493FB740193FA740274
:100CDF0093157F157F157FA87FA60308A60208F638
:100CEF007BFF7A06795B121980057F057F057FE50B
:100CFF0057B401057F0C122B220557C3E5576480AB
:100D0F00948450030208297F0C122B22D2007BFF00
:0C0D1F007A00799C1219807E007F00226F
:102914007F01122E84757E1EE57E25E025E0244489
:10292400FF122C2FAC06AD07E57E25E025E02448F8
:10293400FF122CABE57E25E025E02445FF122C2F69
:10294400AC06AD07E57E25E025E02449FF122CAB5B
:10295400E57E25E025E02446FF122C2FAC06AD07CA
:10296400E57E25E025E0244AFF122CABE57E25E038
:1029740025E02447FF122C2FAC06AD07E57E25E0A9
:1029840025E0244BFF122CAB157EC3E57E648094B6
:10299400805085E4122C9EE4FDFC7F46122CABE4AF
:1029A400FD7F47122CABE4FF122E84E4F537F53695
:1029B400F535F534F533F532F531F5307BFF7A062C
:0529C4007963022F1DE4
:101E9D001223ACE4F537F536F535F534F533F53277
:101EAD00F531F530122C9EC2047BFF7A0679731240
:101EBD002F1D800B122DDDEF6410700302208C128C
:101ECD002FB3432C10852C80D2A5C2A5E529C39430
:101EDD000A400302207D157F157FA87FA63808A62E
:101EED00397BFF7A067986121980057F057F122DC1
:101EFD00DDEF121E50203B001F2A011FAF0220599B
:101F0D00031F69041FF505204D06204108204709D0
:101F1D0020530A205F0E206E0F00001ED9122DDDFA
:101F2D00EF640160F87BFF7A00799C121980122D05
:101F3D00DDBF1020E529C3940A5019157F157FA820
:101F4D007FA63808A6397BFF7A067986121980128A
:101F5D002F4080DA7F01122F9C021ED9122DDDEF4A
:101F6D00640460F87BFF7A00799C121980122DDDD4
:101F7D00EF64107025E529C3940A501E7F0F122EB1
:101F8D00FA157F157FA87FA60608A6077BFF7A06A0
:101F9D0079A6121980122F4080D37F01122F9C0237
:101FAD001ED9122DDDEF640260F87BFF7A00799C5B
:101FBD00121980122DDDEF64107025E529C3940AE6
:101FCD00501E7F01122EFA157F157FA87FA60608D9
:101FDD00A6077BFF7A0679C5121980122F4080D390
:101FED007F01122F9C021ED9122DDDEF640560F8C2
:101FFD007BFF7A00799C121980122DDDEF64107031
:10200D0025E529C3940A501E7F0E122EFA157F1551
:10201D007FA87FA60608A6077BFF7A0679E212192C
:10202D0080122F4080D37F01122F9C021ED91226C1
:10203D008F021ED912284A021ED912209A021ED9C9
:10204D00122D15021ED9122774021ED91229C9028A
:10205D001ED91211FF7BFF7A00799C121980021E86
:10206D00D91207D57BFF7A00799C121980021ED9EF
:10207D007F08122F9C532CEF852C80D2A5C2A52052
:0D208D000103021EC1122914C201021EC16E
:03002300022E3476
:102E3400C0E0C0D075D00830983AC298E599B4AAD9
:102E440005752F00C20820082B7480252FF8A69939
:102E5400052FE52FC39406401B7980E77881260867
:102E6400260826082608667008D203F52FD20880A3
:102E740003752F00309904C299D205D0D0D0E03226
:080003003005FD8F99C20522B2
:102F1D008B6F8A708971AB6FAA70A971121C53FFE8
:102F2D00601012000374012571F571E43570F570B0
:032F3D0080E4220B
:102ED200AE078C788D797FAA1200037DAAAF061205
:102EE2000003EE2DFDAF791200032579FDAF7812B4
:082EF20000032578FF02000334
:03000000022FC705
:0C2FC700787FE4F6D8FD758185021E9D20
:101C5300BB010689828A83E0225002E722BBFE028F
:091C6300E32289828A83E49322C2
:101C6C00F8BB010DE58229F582E5833AF583E8F0AE
:101C7C00225006E92582C8F622BBFE05E92582C85A
:021C8C00F22242
:101C8E00EF8DF0A4A8F0CF8CF0A428CE8DF0A42E6A
:021C9E00FE2224
:101CA000BC000BBE0029EF8DF084FFADF022E4CC28
:101CB000F875F008EF2FFFEE33FEEC33FCEE9DECF1
:101CC000984005FCEE9DFE0FD5F0E9E4CEFD22ED37
:101CD000F8F5F0EE8420D21CFEADF075F008EF2F81
:101CE000FFED33FD4007985006D5F0F222C398FD72
:051CF0000FD5F0EA220F
:101CF500C2D5EC30E709B2D5E4C39DFDE49CFCEE0A
:101D050030E715B2D5E4C39FFFE49EFE121CA0C3C5
:101D1500E49DFDE49CFC8003121CA030D507C3E4C0
:061D25009FFFE49EFE2278
:101D2B00BB010A89828A83E0F5F0A3E02250068783
:101D3B00F009E71922BBFE07E3F5F009E319228945
:0B1D4B00828A83E493F5F07401932278
:101D560075F008758200EF2FFFEE33FECD33CDCC44
:101D660033CCC58233C5829BED9AEC99E5829840C7
:101D76000CF582EE9BFEED9AFDEC99FC0FD5F0D6A4
:101D8600E4CEFBE4CDFAE4CCF9A88222B800C1B9CE
:101D96000059BA002DEC8BF084CFCECDFCE5F0CB0C
:101DA600F97818EF2FFFEE33FEED33FDEC33FCEB45
:101DB60033FB10D703994004EB99FB0FD8E5E4F900
:101DC600FA227818EF2FFFEE33FEED33FDEC33FCED
:101DD600C933C910D7059BE99A4007EC9BFCE99AE1
:101DE600F90FD8E0E4C9FAE4CCFB2275F010EF2F26
:101DF600FFEE33FEED33FDCC33CCC833C810D70726
:101E06009BEC9AE899400AED9BFDEC9AFCE899F860
:0E1E16000FD5F0DAE4CDFBE4CCFAE4C8F922F3
:0C1E2400A42582F582E5F03583F58322C9
:101E3000BB010789828A83021E7F5005E9F8021ED2
:101E400076BBFE05E9F8021E8889828A83021E910C
:101E5000D083D082F8E4937012740193700DA3A321
:101E600093F8740193F5828883E473740293686035
:061E7000EFA3A3A380DF35
:091E7600E6FB08E6FA08E6F92291
:091E7F00E0FBA3E0FAA3E0F92264
:091E8800E2FB08E2FA08E2F9228B
:0C1E9100E493FB740193FA740293F922AD
:00000001FF
